{
  "contractName": "Suber",
  "abi": [
    {
      "inputs": [
        {
          "internalType": "uint256",
          "name": "nb1",
          "type": "uint256"
        },
        {
          "internalType": "uint256",
          "name": "nb2",
          "type": "uint256"
        }
      ],
      "name": "sub",
      "outputs": [
        {
          "internalType": "uint256",
          "name": "",
          "type": "uint256"
        }
      ],
      "stateMutability": "pure",
      "type": "function"
    }
  ],
  "bytecode": "0x608060405234801561001057600080fd5b5061012e806100206000396000f3fe6080604052348015600f57600080fd5b506004361060285760003560e01c8063b67d77c514602d575b600080fd5b606060048036036040811015604157600080fd5b8101908080359060200190929190803590602001909291905050506076565b6040518082815260200191505060405180910390f35b60008183101560ed576040517f08c379a000000000000000000000000000000000000000000000000000000000815260040180806020018281038252601e8152602001807f53756265723a206e6f206e656761746976652076616c756520686572652e000081525060200191505060405180910390fd5b81830390509291505056fea2646970667358221220133284a9415385343d3260fe77c1febcab8be6502d383b574029c95b9e5e2bfa64736f6c634300060c0033",
  "immutableReferences": {},
  "source": "// SPDX-License-Identifier: MIT\npragma solidity ^0.6.0;\n\ncontract Suber {\n    function sub(uint256 nb1, uint256 nb2) public pure returns (uint256) {\n        require(nb1 >= nb2, \"Suber: no negative value here.\");\n        return nb1 - nb2;\n    }\n}\n",
  "sourcePath": "/mnt/c/Users/nricc/desktop/projets/Calculator/contracts/Suber.sol",
  "compiler": {
    "name": "solc",
    "version": "0.6.12+commit.27d51765.Linux.g++"
  },
  "schemaVersion": "3.3.2",
  "updatedAt": "2020-11-11T15:16:38.881Z",
  "devdoc": {
    "kind": "dev",
    "methods": {},
    "version": 1
  },
  "userdoc": {
    "kind": "user",
    "methods": {},
    "version": 1
  }
}